{
  "address": "0x5FbDB2315678afecb367f032d93F642f64180aa3",
  "abi": [
    {
      "inputs": [
        {
          "internalType": "uint256",
          "name": "_lockTime",
          "type": "uint256"
        }
      ],
      "stateMutability": "nonpayable",
      "type": "constructor"
    },
    {
      "inputs": [],
      "name": "NotOwner",
      "type": "error"
    },
    {
      "inputs": [],
      "name": "TXFailed",
      "type": "error"
    },
    {
      "inputs": [],
      "name": "TimeOver",
      "type": "error"
    },
    {
      "inputs": [],
      "name": "foundFailWithMoreEth",
      "type": "error"
    },
    {
      "inputs": [],
      "name": "foundFailWithTime",
      "type": "error"
    },
    {
      "inputs": [],
      "name": "founded",
      "type": "error"
    },
    {
      "inputs": [],
      "name": "getFoundFailWithNoReach",
      "type": "error"
    },
    {
      "inputs": [],
      "name": "reFoundFailWithReach",
      "type": "error"
    },
    {
      "inputs": [],
      "name": "reFoundWithNoBalance",
      "type": "error"
    },
    {
      "anonymous": false,
      "inputs": [
        {
          "indexed": false,
          "internalType": "address",
          "name": "",
          "type": "address"
        },
        {
          "indexed": false,
          "internalType": "uint256",
          "name": "",
          "type": "uint256"
        }
      ],
      "name": "txSucces",
      "type": "event"
    },
    {
      "inputs": [],
      "name": "found",
      "outputs": [],
      "stateMutability": "payable",
      "type": "function"
    },
    {
      "inputs": [
        {
          "internalType": "address",
          "name": "addr",
          "type": "address"
        }
      ],
      "name": "getBalancOfAddr",
      "outputs": [
        {
          "internalType": "uint256",
          "name": "",
          "type": "uint256"
        }
      ],
      "stateMutability": "view",
      "type": "function"
    },
    {
      "inputs": [],
      "name": "getBalance",
      "outputs": [
        {
          "internalType": "uint256",
          "name": "",
          "type": "uint256"
        }
      ],
      "stateMutability": "view",
      "type": "function"
    },
    {
      "inputs": [],
      "name": "getFound",
      "outputs": [],
      "stateMutability": "nonpayable",
      "type": "function"
    },
    {
      "inputs": [],
      "name": "getFounders",
      "outputs": [
        {
          "internalType": "address[]",
          "name": "",
          "type": "address[]"
        }
      ],
      "stateMutability": "view",
      "type": "function"
    },
    {
      "inputs": [],
      "name": "getLockTime",
      "outputs": [
        {
          "internalType": "uint256",
          "name": "",
          "type": "uint256"
        }
      ],
      "stateMutability": "view",
      "type": "function"
    },
    {
      "inputs": [],
      "name": "getOwner",
      "outputs": [
        {
          "internalType": "address",
          "name": "",
          "type": "address"
        }
      ],
      "stateMutability": "view",
      "type": "function"
    },
    {
      "inputs": [],
      "name": "getStartTime",
      "outputs": [
        {
          "internalType": "uint256",
          "name": "",
          "type": "uint256"
        }
      ],
      "stateMutability": "view",
      "type": "function"
    },
    {
      "inputs": [],
      "name": "getTargetMoney",
      "outputs": [
        {
          "internalType": "uint256",
          "name": "",
          "type": "uint256"
        }
      ],
      "stateMutability": "pure",
      "type": "function"
    },
    {
      "inputs": [],
      "name": "reFound",
      "outputs": [],
      "stateMutability": "nonpayable",
      "type": "function"
    }
  ],
  "transactionHash": "0xa952f8587c068406673cb952feb3305fcdb0f9cb55ff3a78c2f375c27b1d9003",
  "args": [
    36000
  ],
  "numDeployments": 1,
  "solcInputHash": "02ead65be2d2cd59c8a52a7e032746fa",
  "bytecode": "0x60e06040526000600260006101000a81548160ff02191690831515021790555073694aa1769357215de4fac081bf1f309adc325306600260016101000a81548173ffffffffffffffffffffffffffffffffffffffff021916908373ffffffffffffffffffffffffffffffffffffffff16021790555034801561008057600080fd5b5060405161129138038061129183398181016040528101906100a29190610127565b3373ffffffffffffffffffffffffffffffffffffffff1660808173ffffffffffffffffffffffffffffffffffffffff16815250508060a081815250504260c0818152505050610154565b600080fd5b6000819050919050565b610104816100f1565b811461010f57600080fd5b50565b600081519050610121816100fb565b92915050565b60006020828403121561013d5761013c6100ec565b5b600061014b84828501610112565b91505092915050565b60805160a05160c0516110dd6101b46000396000818161027a015281816103b7015281816108350152610c7b01526000818161025901528181610396015281816108140152610c5301526000818161078f0152610b5501526110dd6000f3fe6080604052600436106100915760003560e01c8063893d20e811610059578063893d20e814610124578063943129391461014f578063b73cdd191461018c578063c0a4d64d146101b7578063c828371e146101e257610091565b806312065fe0146100965780633d750b28146100c15780636182180c146100cb5780637bf0bd69146100f6578063829006b31461010d575b600080fd5b3480156100a257600080fd5b506100ab61020d565b6040516100b89190610d5f565b60405180910390f35b6100c9610215565b005b3480156100d757600080fd5b506100e0610383565b6040516100ed9190610d5f565b60405180910390f35b34801561010257600080fd5b5061010b610394565b005b34801561011957600080fd5b5061012261078d565b005b34801561013057600080fd5b50610139610b51565b6040516101469190610dbb565b60405180910390f35b34801561015b57600080fd5b5061017660048036038101906101719190610e07565b610b79565b6040516101839190610d5f565b60405180910390f35b34801561019857600080fd5b506101a1610bc1565b6040516101ae9190610ef2565b60405180910390f35b3480156101c357600080fd5b506101cc610c4f565b6040516101d99190610d5f565b60405180910390f35b3480156101ee57600080fd5b506101f7610c77565b6040516102049190610d5f565b60405180910390f35b600047905090565b670de0b6b3a7640000341015610257576040517f101c74e200000000000000000000000000000000000000000000000000000000815260040160405180910390fd5b7f00000000000000000000000000000000000000000000000000000000000000007f00000000000000000000000000000000000000000000000000000000000000006102a39190610f43565b42106102db576040517f39d8dadc00000000000000000000000000000000000000000000000000000000815260040160405180910390fd5b346000803373ffffffffffffffffffffffffffffffffffffffff1673ffffffffffffffffffffffffffffffffffffffff168152602001908152602001600020819055506001339080600181540180825580915050600190039060005260206000200160009091909190916101000a81548173ffffffffffffffffffffffffffffffffffffffff021916908373ffffffffffffffffffffffffffffffffffffffff160217905550565b6000680340aad21b3b700000905090565b7f00000000000000000000000000000000000000000000000000000000000000007f00000000000000000000000000000000000000000000000000000000000000006103e09190610f43565b4211610418576040517fde5ef59900000000000000000000000000000000000000000000000000000000815260040160405180910390fd5b680340aad21b3b700000471061045a576040517ff67ae74c00000000000000000000000000000000000000000000000000000000815260040160405180910390fd5b60008060003373ffffffffffffffffffffffffffffffffffffffff1673ffffffffffffffffffffffffffffffffffffffff168152602001908152602001600020549050600081116104d7576040517fbd9652b800000000000000000000000000000000000000000000000000000000815260040160405180910390fd5b60003373ffffffffffffffffffffffffffffffffffffffff16826040516104fd90610fa8565b60006040518083038185875af1925050503d806000811461053a576040519150601f19603f3d011682016040523d82523d6000602084013e61053f565b606091505b505090508061057a576040517f669751cb00000000000000000000000000000000000000000000000000000000815260040160405180910390fd5b60008060003373ffffffffffffffffffffffffffffffffffffffff1673ffffffffffffffffffffffffffffffffffffffff168152602001908152602001600020819055506000600180549050905060005b8181101561074e576000600182815481106105e9576105e8610fbd565b5b9060005260206000200160009054906101000a900473ffffffffffffffffffffffffffffffffffffffff1690503373ffffffffffffffffffffffffffffffffffffffff168173ffffffffffffffffffffffffffffffffffffffff160361074057600180808054905061065b9190610fec565b8154811061066c5761066b610fbd565b5b9060005260206000200160009054906101000a900473ffffffffffffffffffffffffffffffffffffffff16600183815481106106ab576106aa610fbd565b5b9060005260206000200160006101000a81548173ffffffffffffffffffffffffffffffffffffffff021916908373ffffffffffffffffffffffffffffffffffffffff160217905550600180548061070557610704611020565b5b6001900381819060005260206000200160006101000a81549073ffffffffffffffffffffffffffffffffffffffff021916905590555061074e565b5080806001019150506105cb565b507feb36f3281bbc6cc6d6be7c49dd863d0958961b564fc5b9ad9355584a97927539338460405161078092919061104f565b60405180910390a1505050565b7f000000000000000000000000000000000000000000000000000000000000000073ffffffffffffffffffffffffffffffffffffffff163373ffffffffffffffffffffffffffffffffffffffff1614610812576040517f30cd747100000000000000000000000000000000000000000000000000000000815260040160405180910390fd5b7f00000000000000000000000000000000000000000000000000000000000000007f000000000000000000000000000000000000000000000000000000000000000061085e9190610f43565b4211610896576040517fde5ef59900000000000000000000000000000000000000000000000000000000815260040160405180910390fd5b680340aad21b3b7000004710156108d9576040517fb6ae771700000000000000000000000000000000000000000000000000000000815260040160405180910390fd5b600260009054906101000a900460ff1615610920576040517f4e3fa46700000000000000000000000000000000000000000000000000000000815260040160405180910390fd5b60003373ffffffffffffffffffffffffffffffffffffffff164760405161094690610fa8565b60006040518083038185875af1925050503d8060008114610983576040519150601f19603f3d011682016040523d82523d6000602084013e610988565b606091505b50509050806109c3576040517f669751cb00000000000000000000000000000000000000000000000000000000815260040160405180910390fd5b60006001805480602002602001604051908101604052809291908181526020018280548015610a4757602002820191906000526020600020905b8160009054906101000a900473ffffffffffffffffffffffffffffffffffffffff1673ffffffffffffffffffffffffffffffffffffffff16815260200190600101908083116109fd575b5050505050905060008151905060005b81811015610ad0576000838281518110610a7457610a73610fbd565b5b6020026020010151905060008060008373ffffffffffffffffffffffffffffffffffffffff1673ffffffffffffffffffffffffffffffffffffffff16815260200190815260200160002081905550508080600101915050610a57565b50600067ffffffffffffffff811115610aec57610aeb611078565b5b604051908082528060200260200182016040528015610b1a5781602001602082028036833780820191505090505b5060019080519060200190610b30929190610c9f565b506001600260006101000a81548160ff021916908315150217905550505050565b60007f0000000000000000000000000000000000000000000000000000000000000000905090565b60008060008373ffffffffffffffffffffffffffffffffffffffff1673ffffffffffffffffffffffffffffffffffffffff168152602001908152602001600020549050919050565b60606001805480602002602001604051908101604052809291908181526020018280548015610c4557602002820191906000526020600020905b8160009054906101000a900473ffffffffffffffffffffffffffffffffffffffff1673ffffffffffffffffffffffffffffffffffffffff1681526020019060010190808311610bfb575b5050505050905090565b60007f0000000000000000000000000000000000000000000000000000000000000000905090565b60007f0000000000000000000000000000000000000000000000000000000000000000905090565b828054828255906000526020600020908101928215610d18579160200282015b82811115610d175782518260006101000a81548173ffffffffffffffffffffffffffffffffffffffff021916908373ffffffffffffffffffffffffffffffffffffffff16021790555091602001919060010190610cbf565b5b509050610d259190610d29565b5090565b5b80821115610d42576000816000905550600101610d2a565b5090565b6000819050919050565b610d5981610d46565b82525050565b6000602082019050610d746000830184610d50565b92915050565b600073ffffffffffffffffffffffffffffffffffffffff82169050919050565b6000610da582610d7a565b9050919050565b610db581610d9a565b82525050565b6000602082019050610dd06000830184610dac565b92915050565b600080fd5b610de481610d9a565b8114610def57600080fd5b50565b600081359050610e0181610ddb565b92915050565b600060208284031215610e1d57610e1c610dd6565b5b6000610e2b84828501610df2565b91505092915050565b600081519050919050565b600082825260208201905092915050565b6000819050602082019050919050565b610e6981610d9a565b82525050565b6000610e7b8383610e60565b60208301905092915050565b6000602082019050919050565b6000610e9f82610e34565b610ea98185610e3f565b9350610eb483610e50565b8060005b83811015610ee5578151610ecc8882610e6f565b9750610ed783610e87565b925050600181019050610eb8565b5085935050505092915050565b60006020820190508181036000830152610f0c8184610e94565b905092915050565b7f4e487b7100000000000000000000000000000000000000000000000000000000600052601160045260246000fd5b6000610f4e82610d46565b9150610f5983610d46565b9250828201905080821115610f7157610f70610f14565b5b92915050565b600081905092915050565b50565b6000610f92600083610f77565b9150610f9d82610f82565b600082019050919050565b6000610fb382610f85565b9150819050919050565b7f4e487b7100000000000000000000000000000000000000000000000000000000600052603260045260246000fd5b6000610ff782610d46565b915061100283610d46565b925082820390508181111561101a57611019610f14565b5b92915050565b7f4e487b7100000000000000000000000000000000000000000000000000000000600052603160045260246000fd5b60006040820190506110646000830185610dac565b6110716020830184610d50565b9392505050565b7f4e487b7100000000000000000000000000000000000000000000000000000000600052604160045260246000fdfea2646970667358221220eb3b12bc6914ffe3667caaee706529c6d8a59db045e14eb9491d4b8c568d833a64736f6c634300081c0033",
  "devdoc": {
    "kind": "dev",
    "methods": {},
    "version": 1
  },
  "userdoc": {
    "kind": "user",
    "methods": {},
    "version": 1
  },
  "storageLayout": {
    "storage": [
      {
        "astId": 149,
        "contract": "contracts/foundMe.sol:foundMe",
        "label": "founderTomount",
        "offset": 0,
        "slot": "0",
        "type": "t_mapping(t_address,t_uint256)"
      },
      {
        "astId": 152,
        "contract": "contracts/foundMe.sol:foundMe",
        "label": "founders",
        "offset": 0,
        "slot": "1",
        "type": "t_array(t_address)dyn_storage"
      },
      {
        "astId": 171,
        "contract": "contracts/foundMe.sol:foundMe",
        "label": "foundStatus",
        "offset": 0,
        "slot": "2",
        "type": "t_bool"
      },
      {
        "astId": 177,
        "contract": "contracts/foundMe.sol:foundMe",
        "label": "priceFeed",
        "offset": 1,
        "slot": "2",
        "type": "t_contract(AggregatorV3Interface)45"
      }
    ],
    "types": {
      "t_address": {
        "encoding": "inplace",
        "label": "address",
        "numberOfBytes": "20"
      },
      "t_array(t_address)dyn_storage": {
        "base": "t_address",
        "encoding": "dynamic_array",
        "label": "address[]",
        "numberOfBytes": "32"
      },
      "t_bool": {
        "encoding": "inplace",
        "label": "bool",
        "numberOfBytes": "1"
      },
      "t_contract(AggregatorV3Interface)45": {
        "encoding": "inplace",
        "label": "contract AggregatorV3Interface",
        "numberOfBytes": "20"
      },
      "t_mapping(t_address,t_uint256)": {
        "encoding": "mapping",
        "key": "t_address",
        "label": "mapping(address => uint256)",
        "numberOfBytes": "32",
        "value": "t_uint256"
      },
      "t_uint256": {
        "encoding": "inplace",
        "label": "uint256",
        "numberOfBytes": "32"
      }
    }
  }
}