{
  "address": "0x5FbDB2315678afecb367f032d93F642f64180aa3",
  "abi": [
    {
      "inputs": [
        {
          "internalType": "uint256",
          "name": "_lockTime",
          "type": "uint256"
        }
      ],
      "stateMutability": "nonpayable",
      "type": "constructor"
    },
    {
      "inputs": [],
      "name": "found",
      "outputs": [],
      "stateMutability": "payable",
      "type": "function"
    },
    {
      "inputs": [
        {
          "internalType": "address",
          "name": "",
          "type": "address"
        }
      ],
      "name": "founderTomount",
      "outputs": [
        {
          "internalType": "uint256",
          "name": "",
          "type": "uint256"
        }
      ],
      "stateMutability": "view",
      "type": "function"
    },
    {
      "inputs": [
        {
          "internalType": "address",
          "name": "addr",
          "type": "address"
        }
      ],
      "name": "getBalancOfAddr",
      "outputs": [
        {
          "internalType": "uint256",
          "name": "",
          "type": "uint256"
        }
      ],
      "stateMutability": "view",
      "type": "function"
    },
    {
      "inputs": [],
      "name": "getBalance",
      "outputs": [
        {
          "internalType": "uint256",
          "name": "",
          "type": "uint256"
        }
      ],
      "stateMutability": "view",
      "type": "function"
    },
    {
      "inputs": [],
      "name": "getFound",
      "outputs": [],
      "stateMutability": "nonpayable",
      "type": "function"
    },
    {
      "inputs": [],
      "name": "getFounders",
      "outputs": [
        {
          "internalType": "address[]",
          "name": "",
          "type": "address[]"
        }
      ],
      "stateMutability": "view",
      "type": "function"
    },
    {
      "inputs": [
        {
          "internalType": "uint256",
          "name": "amount",
          "type": "uint256"
        }
      ],
      "name": "getRate",
      "outputs": [
        {
          "internalType": "uint256",
          "name": "",
          "type": "uint256"
        }
      ],
      "stateMutability": "pure",
      "type": "function"
    },
    {
      "inputs": [],
      "name": "getTargetMoney",
      "outputs": [
        {
          "internalType": "uint256",
          "name": "",
          "type": "uint256"
        }
      ],
      "stateMutability": "view",
      "type": "function"
    },
    {
      "inputs": [],
      "name": "lockTime",
      "outputs": [
        {
          "internalType": "uint256",
          "name": "",
          "type": "uint256"
        }
      ],
      "stateMutability": "view",
      "type": "function"
    },
    {
      "inputs": [],
      "name": "owner",
      "outputs": [
        {
          "internalType": "address",
          "name": "",
          "type": "address"
        }
      ],
      "stateMutability": "view",
      "type": "function"
    },
    {
      "inputs": [],
      "name": "reFound",
      "outputs": [],
      "stateMutability": "nonpayable",
      "type": "function"
    },
    {
      "inputs": [],
      "name": "startTime",
      "outputs": [
        {
          "internalType": "uint256",
          "name": "",
          "type": "uint256"
        }
      ],
      "stateMutability": "view",
      "type": "function"
    }
  ],
  "transactionHash": "0xceb1c4c663dbcf78a862f15a57ce06e39cef03b676f297fcaabc21f4d77d3dfb",
  "args": [
    36000
  ],
  "numDeployments": 1,
  "solcInputHash": "836408120bc153bd8a173416097f55a1",
  "bytecode": "0x60806040526802b5e3af16b18800006002556802b5e3af16b18800006004556000600760006101000a81548160ff02191690831515021790555073694aa1769357215de4fac081bf1f309adc325306600760016101000a81548173ffffffffffffffffffffffffffffffffffffffff021916908373ffffffffffffffffffffffffffffffffffffffff16021790555034801561009a57600080fd5b5060405161159038038061159083398181016040528101906100bc919061014c565b33600360006101000a81548173ffffffffffffffffffffffffffffffffffffffff021916908373ffffffffffffffffffffffffffffffffffffffff160217905550806005819055504260068190555050610179565b600080fd5b6000819050919050565b61012981610116565b811461013457600080fd5b50565b60008151905061014681610120565b92915050565b60006020828403121561016257610161610111565b5b600061017084828501610137565b91505092915050565b611408806101886000396000f3fe6080604052600436106100a75760003560e01c806378e979251161006457806378e97925146101b15780637bf0bd69146101dc578063829006b3146101f35780638da5cb5b1461020a5780639431293914610235578063b73cdd1914610272576100a7565b80630d668087146100ac57806312065fe0146100d75780633d750b28146101025780633e4e6d591461010c57806357764094146101495780636182180c14610186575b600080fd5b3480156100b857600080fd5b506100c161029d565b6040516100ce9190610c65565b60405180910390f35b3480156100e357600080fd5b506100ec6102a3565b6040516100f99190610c65565b60405180910390f35b61010a6102ab565b005b34801561011857600080fd5b50610133600480360381019061012e9190610ce3565b6103e9565b6040516101409190610c65565b60405180910390f35b34801561015557600080fd5b50610170600480360381019061016b9190610d3c565b610401565b60405161017d9190610c65565b60405180910390f35b34801561019257600080fd5b5061019b61043b565b6040516101a89190610c65565b60405180910390f35b3480156101bd57600080fd5b506101c6610445565b6040516101d39190610c65565b60405180910390f35b3480156101e857600080fd5b506101f161044b565b005b3480156101ff57600080fd5b50610208610747565b005b34801561021657600080fd5b5061021f610a87565b60405161022c9190610d78565b60405180910390f35b34801561024157600080fd5b5061025c60048036038101906102579190610ce3565b610aad565b6040516102699190610c65565b60405180910390f35b34801561027e57600080fd5b50610287610af5565b6040516102949190610e51565b60405180910390f35b60055481565b600047905090565b6004543410156102f0576040517f08c379a00000000000000000000000000000000000000000000000000000000081526004016102e790610ed0565b60405180910390fd5b6005546006546103009190610f1f565b4210610341576040517f08c379a000000000000000000000000000000000000000000000000000000000815260040161033890610f9f565b60405180910390fd5b346000803373ffffffffffffffffffffffffffffffffffffffff1673ffffffffffffffffffffffffffffffffffffffff168152602001908152602001600020819055506001339080600181540180825580915050600190039060005260206000200160009091909190916101000a81548173ffffffffffffffffffffffffffffffffffffffff021916908373ffffffffffffffffffffffffffffffffffffffff160217905550565b60006020528060005260406000206000915090505481565b60008061040c610b83565b90506000670de0b6b3a764000082856104259190610fbf565b61042f9190611030565b90508092505050919050565b6000600254905090565b60065481565b60055460065461045b9190610f1f565b421161049c576040517f08c379a0000000000000000000000000000000000000000000000000000000008152600401610493906110ad565b60405180910390fd5b60003373ffffffffffffffffffffffffffffffffffffffff166000803373ffffffffffffffffffffffffffffffffffffffff1673ffffffffffffffffffffffffffffffffffffffff16815260200190815260200160002054604051610500906110fe565b60006040518083038185875af1925050503d806000811461053d576040519150601f19603f3d011682016040523d82523d6000602084013e610542565b606091505b5050905080610586576040517f08c379a000000000000000000000000000000000000000000000000000000000815260040161057d9061115f565b60405180910390fd5b60008060003373ffffffffffffffffffffffffffffffffffffffff1673ffffffffffffffffffffffffffffffffffffffff1681526020019081526020016000208190555060005b6001805490508110156106fc573373ffffffffffffffffffffffffffffffffffffffff16600182815481106106055761060461117f565b5b9060005260206000200160009054906101000a900473ffffffffffffffffffffffffffffffffffffffff1673ffffffffffffffffffffffffffffffffffffffff16036106ef5760018080549050815481106106635761066261117f565b5b9060005260206000200160009054906101000a900473ffffffffffffffffffffffffffffffffffffffff16600182815481106106a2576106a161117f565b5b9060005260206000200160006101000a81548173ffffffffffffffffffffffffffffffffffffffff021916908373ffffffffffffffffffffffffffffffffffffffff1602179055506106fc565b80806001019150506105cd565b50600180548061070f5761070e6111ae565b5b6001900381819060005260206000200160006101000a81549073ffffffffffffffffffffffffffffffffffffffff0219169055905550565b600360009054906101000a900473ffffffffffffffffffffffffffffffffffffffff1673ffffffffffffffffffffffffffffffffffffffff163373ffffffffffffffffffffffffffffffffffffffff16146107d7576040517f08c379a00000000000000000000000000000000000000000000000000000000081526004016107ce90611229565b60405180910390fd5b6005546006546107e79190610f1f565b4211610828576040517f08c379a000000000000000000000000000000000000000000000000000000000815260040161081f906110ad565b60405180910390fd5b60025447101561086d576040517f08c379a000000000000000000000000000000000000000000000000000000000815260040161086490611295565b60405180910390fd5b600760009054906101000a900460ff16156108bd576040517f08c379a00000000000000000000000000000000000000000000000000000000081526004016108b490611301565b60405180910390fd5b60003373ffffffffffffffffffffffffffffffffffffffff16476040516108e3906110fe565b60006040518083038185875af1925050503d8060008114610920576040519150601f19603f3d011682016040523d82523d6000602084013e610925565b606091505b5050905080610969576040517f08c379a00000000000000000000000000000000000000000000000000000000081526004016109609061115f565b60405180910390fd5b60005b600180549050811015610a08576000806000600184815481106109925761099161117f565b5b9060005260206000200160009054906101000a900473ffffffffffffffffffffffffffffffffffffffff1673ffffffffffffffffffffffffffffffffffffffff1673ffffffffffffffffffffffffffffffffffffffff16815260200190815260200160002081905550808060010191505061096c565b50600067ffffffffffffffff811115610a2457610a23611321565b5b604051908082528060200260200182016040528015610a525781602001602082028036833780820191505090505b5060019080519060200190610a68929190610ba5565b506001600760006101000a81548160ff02191690831515021790555050565b600360009054906101000a900473ffffffffffffffffffffffffffffffffffffffff1681565b60008060008373ffffffffffffffffffffffffffffffffffffffff1673ffffffffffffffffffffffffffffffffffffffff168152602001908152602001600020549050919050565b60606001805480602002602001604051908101604052809291908181526020018280548015610b7957602002820191906000526020600020905b8160009054906101000a900473ffffffffffffffffffffffffffffffffffffffff1673ffffffffffffffffffffffffffffffffffffffff1681526020019060010190808311610b2f575b5050505050905090565b6000806445d964b80090506402540be40081610b9f919061135a565b91505090565b828054828255906000526020600020908101928215610c1e579160200282015b82811115610c1d5782518260006101000a81548173ffffffffffffffffffffffffffffffffffffffff021916908373ffffffffffffffffffffffffffffffffffffffff16021790555091602001919060010190610bc5565b5b509050610c2b9190610c2f565b5090565b5b80821115610c48576000816000905550600101610c30565b5090565b6000819050919050565b610c5f81610c4c565b82525050565b6000602082019050610c7a6000830184610c56565b92915050565b600080fd5b600073ffffffffffffffffffffffffffffffffffffffff82169050919050565b6000610cb082610c85565b9050919050565b610cc081610ca5565b8114610ccb57600080fd5b50565b600081359050610cdd81610cb7565b92915050565b600060208284031215610cf957610cf8610c80565b5b6000610d0784828501610cce565b91505092915050565b610d1981610c4c565b8114610d2457600080fd5b50565b600081359050610d3681610d10565b92915050565b600060208284031215610d5257610d51610c80565b5b6000610d6084828501610d27565b91505092915050565b610d7281610ca5565b82525050565b6000602082019050610d8d6000830184610d69565b92915050565b600081519050919050565b600082825260208201905092915050565b6000819050602082019050919050565b610dc881610ca5565b82525050565b6000610dda8383610dbf565b60208301905092915050565b6000602082019050919050565b6000610dfe82610d93565b610e088185610d9e565b9350610e1383610daf565b8060005b83811015610e44578151610e2b8882610dce565b9750610e3683610de6565b925050600181019050610e17565b5085935050505092915050565b60006020820190508181036000830152610e6b8184610df3565b905092915050565b600082825260208201905092915050565b7f706c656173652073656e64206d6f726520657468000000000000000000000000600082015250565b6000610eba601483610e73565b9150610ec582610e84565b602082019050919050565b60006020820190508181036000830152610ee981610ead565b9050919050565b7f4e487b7100000000000000000000000000000000000000000000000000000000600052601160045260246000fd5b6000610f2a82610c4c565b9150610f3583610c4c565b9250828201905080821115610f4d57610f4c610ef0565b5b92915050565b7f74696d6520697320657870697265640000000000000000000000000000000000600082015250565b6000610f89600f83610e73565b9150610f9482610f53565b602082019050919050565b60006020820190508181036000830152610fb881610f7c565b9050919050565b6000610fca82610c4c565b9150610fd583610c4c565b9250828202610fe381610c4c565b91508282048414831517610ffa57610ff9610ef0565b5b5092915050565b7f4e487b7100000000000000000000000000000000000000000000000000000000600052601260045260246000fd5b600061103b82610c4c565b915061104683610c4c565b92508261105657611055611001565b5b828204905092915050565b7f74696d65206973206f7665720000000000000000000000000000000000000000600082015250565b6000611097600c83610e73565b91506110a282611061565b602082019050919050565b600060208201905081810360008301526110c68161108a565b9050919050565b600081905092915050565b50565b60006110e86000836110cd565b91506110f3826110d8565b600082019050919050565b6000611109826110db565b9150819050919050565b7f7472616e73616374696f6e206973206661696c65640000000000000000000000600082015250565b6000611149601583610e73565b915061115482611113565b602082019050919050565b600060208201905081810360008301526111788161113c565b9050919050565b7f4e487b7100000000000000000000000000000000000000000000000000000000600052603260045260246000fd5b7f4e487b7100000000000000000000000000000000000000000000000000000000600052603160045260246000fd5b7f796f7520617265206e6f74206f776e6572000000000000000000000000000000600082015250565b6000611213601183610e73565b915061121e826111dd565b602082019050919050565b6000602082019050818103600083015261124281611206565b9050919050565b7f746172676574206e6f7420726561636865640000000000000000000000000000600082015250565b600061127f601283610e73565b915061128a82611249565b602082019050919050565b600060208201905081810360008301526112ae81611272565b9050919050565b7f796f752068616420666f756e6465640000000000000000000000000000000000600082015250565b60006112eb600f83610e73565b91506112f6826112b5565b602082019050919050565b6000602082019050818103600083015261131a816112de565b9050919050565b7f4e487b7100000000000000000000000000000000000000000000000000000000600052604160045260246000fd5b6000819050919050565b600061136582611350565b915061137083611350565b925082820261137e81611350565b91507f800000000000000000000000000000000000000000000000000000000000000084146000841216156113b6576113b5610ef0565b5b82820584148315176113cb576113ca610ef0565b5b509291505056fea2646970667358221220a47d39af8337b077f50b15ab77c83051b03dca1feab11a2e05076eeba0c8abbf64736f6c634300081c0033",
  "devdoc": {
    "kind": "dev",
    "methods": {},
    "version": 1
  },
  "userdoc": {
    "kind": "user",
    "methods": {},
    "version": 1
  },
  "storageLayout": {
    "storage": [
      {
        "astId": 52,
        "contract": "contracts/foundMe.sol:foundMe",
        "label": "founderTomount",
        "offset": 0,
        "slot": "0",
        "type": "t_mapping(t_address,t_uint256)"
      },
      {
        "astId": 55,
        "contract": "contracts/foundMe.sol:foundMe",
        "label": "founders",
        "offset": 0,
        "slot": "1",
        "type": "t_array(t_address)dyn_storage"
      },
      {
        "astId": 60,
        "contract": "contracts/foundMe.sol:foundMe",
        "label": "targetMoney",
        "offset": 0,
        "slot": "2",
        "type": "t_uint256"
      },
      {
        "astId": 62,
        "contract": "contracts/foundMe.sol:foundMe",
        "label": "owner",
        "offset": 0,
        "slot": "3",
        "type": "t_address"
      },
      {
        "astId": 67,
        "contract": "contracts/foundMe.sol:foundMe",
        "label": "min_value",
        "offset": 0,
        "slot": "4",
        "type": "t_uint256"
      },
      {
        "astId": 69,
        "contract": "contracts/foundMe.sol:foundMe",
        "label": "lockTime",
        "offset": 0,
        "slot": "5",
        "type": "t_uint256"
      },
      {
        "astId": 71,
        "contract": "contracts/foundMe.sol:foundMe",
        "label": "startTime",
        "offset": 0,
        "slot": "6",
        "type": "t_uint256"
      },
      {
        "astId": 74,
        "contract": "contracts/foundMe.sol:foundMe",
        "label": "foundStatus",
        "offset": 0,
        "slot": "7",
        "type": "t_bool"
      },
      {
        "astId": 80,
        "contract": "contracts/foundMe.sol:foundMe",
        "label": "priceFeed",
        "offset": 1,
        "slot": "7",
        "type": "t_contract(AggregatorV3Interface)45"
      }
    ],
    "types": {
      "t_address": {
        "encoding": "inplace",
        "label": "address",
        "numberOfBytes": "20"
      },
      "t_array(t_address)dyn_storage": {
        "base": "t_address",
        "encoding": "dynamic_array",
        "label": "address[]",
        "numberOfBytes": "32"
      },
      "t_bool": {
        "encoding": "inplace",
        "label": "bool",
        "numberOfBytes": "1"
      },
      "t_contract(AggregatorV3Interface)45": {
        "encoding": "inplace",
        "label": "contract AggregatorV3Interface",
        "numberOfBytes": "20"
      },
      "t_mapping(t_address,t_uint256)": {
        "encoding": "mapping",
        "key": "t_address",
        "label": "mapping(address => uint256)",
        "numberOfBytes": "32",
        "value": "t_uint256"
      },
      "t_uint256": {
        "encoding": "inplace",
        "label": "uint256",
        "numberOfBytes": "32"
      }
    }
  }
}